:020000040000fa
:080000000002040000000000f2
:020000040000fa
:04000800700b000079
:020000040000fa
:04000c00f80a0000ee
:020000040000fa
:04001000160b0000cb
:020000040000fa
:04001400ac0b000031
:020000040000fa
:040018008e0b00004b
:020000040000fa
:04001c00e2080000f6
:020000040000fa
:04002000340b00009d
:020000040000fa
:04002400da080000f6
:020000040000fa
:04002800e2080000ea
:020000040000fa
:04002c00e2080000e6
:020000040000fa
:04003000e2080000e2
:020000040000fa
:04003400e2080000de
:020000040000fa
:04003800e2080000da
:020000040000fa
:04003c00e2080000d6
:020000040000fa
:04004000e2080000d2
:020000040000fa
:04004400d20b0000db
:020000040000fa
:04004800e2080000ca
:020000040000fa
:04004c00e2080000c6
:020000040000fa
:04005000e2080000c2
:020000040000fa
:04005400e2080000be
:020000040000fa
:04005800e2080000ba
:020000040000fa
:04005c00e2080000b6
:020000040000fa
:04006000e2080000b2
:020000040000fa
:04006400e2080000ae
:020000040000fa
:04006800e2080000aa
:020000040000fa
:04006c00e2080000a6
:020000040000fa
:04007000e2080000a2
:020000040000fa
:04007400e20800009e
:020000040000fa
:04007800e20800009a
:020000040000fa
:04007c00e208000096
:020000040000fa
:04008000e208000092
:020000040000fa
:04008400e20800008e
:020000040000fa
:04008800e20800008a
:020000040000fa
:04008c00e208000086
:020000040000fa
:04009000e208000082
:020000040000fa
:04009400e20800007e
:020000040000fa
:04009800e20800007a
:020000040000fa
:04009c00e208000076
:020000040000fa
:0400a000e208000072
:020000040000fa
:0400a400e20800006e
:020000040000fa
:0400a800e20800006a
:020000040000fa
:0400ac00e208000066
:020000040000fa
:0400b000e208000062
:020000040000fa
:0400b400e20800005e
:020000040000fa
:0400b800e20800005a
:020000040000fa
:0400bc00e208000056
:020000040000fa
:0400c000e208000052
:020000040000fa
:0400c400e20800004e
:020000040000fa
:0400c800e20800004a
:020000040000fa
:0400cc00e208000046
:020000040000fa
:0400d000e208000042
:020000040000fa
:0400d400e20800003e
:020000040000fa
:0400d800e20800003a
:020000040000fa
:0400dc00d80a00003e
:020000040000fa
:0400e000e208000032
:020000040000fa
:0400e400e20800002e
:020000040000fa
:0400e800e20800002a
:020000040000fa
:0400ec00e208000026
:020000040000fa
:0400f000e208000022
:020000040000fa
:0400f400e20800001e
:020000040000fa
:0400f800e20800001a
:020000040000fa
:0400fc00e208000016
:020000040000fa
:04010000e208000011
:020000040000fa
:04010400e20800000d
:020000040000fa
:04010800e208000009
:020000040000fa
:04010c00e208000005
:020000040000fa
:04011000e208000001
:020000040000fa
:04011400e2080000fd
:020000040000fa
:04011800e2080000f9
:020000040000fa
:04011c00e2080000f5
:020000040000fa
:04012000e2080000f1
:020000040000fa
:04012400e2080000ed
:020000040000fa
:04012800e2080000e9
:020000040000fa
:04012c00e2080000e5
:020000040000fa
:04013000e2080000e1
:020000040000fa
:04013400e2080000dd
:020000040000fa
:04013800e2080000d9
:020000040000fa
:04013c00e2080000d5
:020000040000fa
:04014000e2080000d1
:020000040000fa
:04014400e2080000cd
:020000040000fa
:04014800e2080000c9
:020000040000fa
:04014c00e2080000c5
:020000040000fa
:04015000e2080000c1
:020000040000fa
:04015400e2080000bd
:020000040000fa
:04015800e2080000b9
:020000040000fa
:04015c00e2080000b5
:020000040000fa
:04016000e2080000b1
:020000040000fa
:04016400e2080000ad
:020000040000fa
:04016800e2080000a9
:020000040000fa
:04016c00e2080000a5
:020000040000fa
:04017000e2080000a1
:020000040000fa
:04017400e20800009d
:020000040000fa
:04017800e208000099
:020000040000fa
:04017c00e208000095
:020000040000fa
:04018000e208000091
:020000040000fa
:04018400e20800008d
:020000040000fa
:04018800e208000089
:020000040000fa
:04018c00e208000085
:020000040000fa
:04019000ee05000078
:020000040000fa
:0401940072080000ed
:020000040000fa
:04019800a6080000b5
:020000040000fa
:04019c00e208000075
:020000040000fa
:0401a000e208000071
:020000040000fa
:0401a400d20600007f
:020000040000fa
:0401a800e208000069
:020000040000fa
:0401ac00e208000065
:020000040000fa
:0401b000e208000061
:020000040000fa
:0401b400e20800005d
:020000040000fa
:0401b800e208000059
:020000040000fa
:0401bc000607000032
:020000040000fa
:0401c0003a070000fa
:020000040000fa
:0401c4006e070000c2
:020000040000fa
:0401c800e208000049
:020000040000fa
:0401cc00e208000045
:020000040000fa
:0401d000ee08000035
:020000040000fa
:0401d400e20800003d
:020000040000fa
:0401d800d607000046
:020000040000fa
:0401dc00e208000035
:020000040000fa
:0401e000e208000031
:020000040000fa
:0401e400e20800002d
:020000040000fa
:0401e800e208000029
:020000040000fa
:0401ec000a080000fd
:020000040000fa
:0401f0003e080000c5
:020000040000fa
:0401f400e20800001d
:020000040000fa
:0401f800e208000019
:020000040000fa
:0401fc00e208000015
:020000040000fa
:04020000e208000010
:020000040000fa
:04020400e20800000c
:020000040000fa
:04020800e208000008
:020000040000fa
:04020c00e208000004
:020000040000fa
:04021000e208000000
:020000040000fa
:04021400e2080000fc
:020000040000fa
:04021800e2080000f8
:020000040000fa
:04021c00e2080000f4
:020000040000fa
:04022000e2080000f0
:020000040000fa
:04022400e2080000ec
:020000040000fa
:04022800e2080000e8
:020000040000fa
:04022c00e2080000e4
:020000040000fa
:04023000e2080000e0
:020000040000fa
:04023400e2080000dc
:020000040000fa
:04023800e2080000d8
:020000040000fa
:04023c00e2080000d4
:020000040000fa
:04024000e2080000d0
:020000040000fa
:04024400e2080000cc
:020000040000fa
:04024800e2080000c8
:020000040000fa
:04024c00e2080000c4
:020000040000fa
:04025000e2080000c0
:020000040000fa
:04025400e2080000bc
:020000040000fa
:04025800e2080000b8
:020000040000fa
:04025c00e2080000b4
:020000040000fa
:04026000e2080000b0
:020000040000fa
:04026400e2080000ac
:020000040000fa
:04026800e2080000a8
:020000040000fa
:04026c00e2080000a4
:020000040000fa
:04027000e2080000a0
:020000040000fa
:04027400e20800009c
:020000040000fa
:04027800e208000098
:020000040000fa
:04027c00e208000094
:020000040000fa
:04028000e208000090
:020000040000fa
:04028400e20800008c
:020000040000fa
:04028800e208000088
:020000040000fa
:04028c00e208000084
:020000040000fa
:04029000e208000080
:020000040000fa
:04029400e20800007c
:020000040000fa
:04029800e208000078
:020000040000fa
:04029c00e208000074
:020000040000fa
:0402a000e208000070
:020000040000fa
:0402a400e20800006c
:020000040000fa
:0402a800e208000068
:020000040000fa
:0402ac00e208000064
:020000040000fa
:0402b000e208000060
:020000040000fa
:0402b400e20800005c
:020000040000fa
:0402b800e208000058
:020000040000fa
:0402bc00e208000054
:020000040000fa
:0402c000e208000050
:020000040000fa
:0402c400e20800004c
:020000040000fa
:0402c800e208000048
:020000040000fa
:0402cc00e208000044
:020000040000fa
:0402d000e208000040
:020000040000fa
:0402d400e20800003c
:020000040000fa
:0402d800e208000038
:020000040000fa
:0402dc00e208000034
:020000040000fa
:0402e000e208000030
:020000040000fa
:0402e400e20800002c
:020000040000fa
:0402e800e208000028
:020000040000fa
:0402ec00e208000024
:020000040000fa
:0402f000e208000020
:020000040000fa
:0402f400e20800001c
:020000040000fa
:0402f800e208000018
:020000040000fa
:0402fc00e208000014
:020000040000fa
:04030000e20800000f
:020000040000fa
:04030400e20800000b
:020000040000fa
:04030800e208000007
:020000040000fa
:04030c00e208000003
:020000040000fa
:04031000e2080000ff
:020000040000fa
:04031400e2080000fb
:020000040000fa
:04031800e2080000f7
:020000040000fa
:04031c00e2080000f3
:020000040000fa
:04032000e2080000ef
:020000040000fa
:04032400e2080000eb
:020000040000fa
:04032800e2080000e7
:020000040000fa
:04032c00e2080000e3
:020000040000fa
:04033000e2080000df
:020000040000fa
:04033400e2080000db
:020000040000fa
:100400008fd722000eff26000e018800000000009a
:10041000000020000000e000020032000001200087
:100420002002880014000700110507000000e0000a
:1004300003003a002065240001002000020037007c
:100440000000200001002000810f70000100320038
:100450000f000700000020000000e0000200320052
:100460000000020000000000f05702000000000041
:100470000040da000000fe00600620000000e000fe
:1004800002003200002020009001880000000600d9
:10049000a1028800800478000000eb001f003700f4
:1004a000e284440054a0b4009905ba00e2844400f8
:1004b00054a0b4009906ba00e284440054a0b400e9
:1004c0000006eb00476fde00fd07b200ae018800ba
:1004d000636ce10003003a000ad801000000eb0061
:1004e0000e003700606ce10008003a00004deb00a0
:1004f0000a05e800020039003420ec000af0a000f0
:100500008b05e900f9ff3e00040037006168e10057
:10051000010032000086eb000b00070019c7ba008b
:100520001905ba000e04e00003003a000a00e000da
:10053000dbff3a0000000600fe07b200ae028800b2
:100540008a047800f5ff37000cd0a300e20f4d00bd
:100550001c003b0089027800354dba000a05e8000e
:10056000020039003420ec000af0a0008b05e900fd
:100570000f003200254dba000a05e80002003900dc
:100580003420ec000af0a0008b05e90008003200de
:100590000c00e0000600320015cdba000a05e800a4
:1005a000020039003420ec000af0a0008b05e900bd
:1005b0008984e80054a0b4000b00e000e2ff3a0098
:1005c000000006009902ba00055d78008b05e9007d
:1005d000f7ff3200c82ade00055d78008b05e900d0
:1005e000f3ff32000c00e000f1ff320019ddba0029
:1005f000eeff3700e876040000000000ea76040011
:1006000000000000ec7604000000000028750400e3
:100610000000000030750400000000000a530400d0
:1006200000000000da6104000000000034620400f1
:1006300000000000ac6604000000000096580400b2
:1006400000000000f86c0400000000001e740400ac
:10065000000000003259040000000000c84c0400f3
:1006600000000000dc530400000000005e7604007f
:1006700000000000627604000000000066760400be
:10068000000000006a76040000000000e676040026
:1006900000000000d0650400000000001e6104009e
:1006a00000000000026e0400000000006e760400ee
:1006b000000000007276040000000000767604005e
:1006c000000000004e7304000000000020750400cc
:1006d000000000005e73040000000000ee760400dd
:1006e000000000008276040000000000867604000e
:1006f00000000000ce750400000000001e6d040024
:10070000000000004a6f0400000000007a76040038
:10071000000000007e76040000000000c8750400a0
:100720000000000038750400000000006e73040033
:10073000000000003a74040000000000e6750400a8
:1007400000000000ec75040000000000f2750400d9
:1007500000000000f8750400000000005875040057
:10076000000000001c7604000000000096760400e3
:10077000000000009a760400000000005674040097
:1007800000000000607504000000000022760400f4
:10079000000000009e76040000000000a276040025
:1007a000000000006474040000000000687504008c
:1007b000000000002e76040000000000a676040071
:1007c00000000000aa760400000000002876040063
:1007d00000000000f876040000000000ac4e0400a9
:1007e000000000003652040000000000787504008c
:1007f000000000007075040000000000ae760400e8
:1008000000000000b276040000000000b67604008c
:10081000000000005270040000000000e6620400c6
:10082000000000006a7004000000000094690400e9
:10083000000000008270040000000000ca6904008b
:10084000000000003a63040000000000826504001c
:10085000000000006c6e0400000000009a700400ac
:1008600000000000b270040000000000ca70040024
:1008700000000000e270040000000000fa700400b4
:100880000000000012710400000000000e6f040060
:10089000000000002a71040000000000a05d0400b8
:1008a000000000001e5e0400000000004a57040023
:1008b000000000009c5e0400000000003a7004008c
:1008c0000000000022700400000000005a710400c3
:1008d0000000000072710400000000008a71040032
:1008e0000000000042710400000000008e6e040051
:1008f00000000000a2710400000000008e630400ec
:1009000000000000e2630400000000003664040000
:10091000000000008a6404000000000080750400ec
:10092000000000007867040000000000006a040076
:1009300000000000966a040000000000be7604007b
:1009400000000000ba76040000000000e27204001b
:1009500000000000c27604000000000034760400ad
:100960000000000072740400000000003a760400e9
:1009700000000000b274040000000000c67604000d
:1009800000000000ca76040000000000f4720400b9
:1009900000000000ce760400000000004076040055
:1009a00000000000be73040000000000ce730400cd
:1009b00000000000fa76040000000000fc7604004d
:1009c00000000000526b040000000000a86c04004e
:1009d00000000000907504000000000098750400fd
:1009e000000000008472040000000000666f040034
:1009f00000000000826f040000000000de730400ad
:100a000000000000a075040000000000fe76040055
:100a1000000000009872040000000000be74040092
:100a200000000000d276040000000000d67604002a
:100a300000000000da7604000000000046760400a2
:100a4000000000004c76040000000000ee7304007b
:100a500000000000a875040000000000ca74040033
:100a6000000000009e6f0400000000002a730400d4
:100a70000000000080740400000000000c750400f9
:100a8000000000001675040000000000fe73040062
:100a9000000000000e74040000000000de76040078
:100aa00000000000e276040000000000f06f040087
:100ab0000000000052760400000000005876040098
:100ac00000000000b0750400000000003c7304004a
:100ad000000000008e620400000000001a6604009e
:100ae000000000003065040000000000fa5a040015
:100af00000000000005b040000000000045b040034
:100b000000000000085b040000000000da4104005f
:100b100000000000e4400400000000005641040012
:100b200000000000a0420400000000001436040091
:100b3000000000000a360400000000002e6c0400d3
:100b400000000000306c040000000000326c040063
:100b500000000000346c040000000000366c04004b
:100b600000000000386c0400000000009830040011
:100b700000000000a630040000000000bc350400a6
:100b8000000000001c35040000000000d432040006
:100b9000000000003e34040000000000c61e0400f7
:100ba000000000004a1e04000000000000220400b3
:100bb00000000000b422040000000000782a0400b5
:100bc000000000000c1604000000000036120400b3
:100bd000000000009e110400000000003600f80034
:100be000809fbe00829fbe00849fbe00869fbe0085
:100bf0003200f8003400f80010002000a001880046
:100c00000020200000d0fe00008f80000000e000e7
:100c100001003200000001000a08e20007003d0068
:100c2000a1608000f28e80000200e000020032002d
:100c30000000eb00020001000be8a9000ca8ab00cb
:100c40000700320001618000f28e80000200e000a7
:100c50000200320010002000020001000ca8a900d0
:100c60000cc8ab000700320011618000f28e8000da
:100c70000200e0000200320020002000020001001b
:100c80000cc8a9000ce8ab0007003200216180000d
:100c9000f28e80000200e0000200320030002000ee
:100ca000020001000ce8a9000d48ab00070032006b
:100cb00051618000f28e80000200e00002003200ec
:100cc00040002000020001000d48a9000d88ab0083
:100cd0000700320071618000f28e80000200e000a7
:100ce0000200320050002000020001000d88a9001f
:100cf0000e28ab0007003200c1618000f28e800038
:100d00000200e0000200320060002000020001004a
:100d10000e28a9000e48ab0007003200d161800008
:100d2000f28e80000200e00002003200700020001d
:100d3000020001000e48a9000b68ab00070032005a
:100d400061608000f28e80000200e000020032004c
:100d500080002000020001000b68a9000b88ab0096
:100d60000700320071608000f28e80000200e00017
:100d70000200320090002000020001000b88a90050
:100d80000b48a9003400f9003200f9004f03be00ff
:100d90004f02be004f01be004f00be003600f900fa
:100da000004006003600f800809fbe00829fbe0013
:100db000849fbe00869fbe003200f8003400f80019
:100dc00010002000a00188000020200000d0fe00bc
:100dd000a1608000f28e80000200e000020032007c
:100de0000000eb00020001000be8a9003400f9004c
:100df0003200f9004f03be004f02be004f01be009b
:100e00004f00be003600f900004006003600f80032
:100e1000809fbe00829fbe00849fbe00869fbe0052
:100e20003200f8003400f80010002000a001880013
:100e30000020200000d0fe0001618000f28e8000c2
:100e40000200e00002003200100020000200010059
:100e50000ca8a9003400f9003200f9004f03be00cd
:100e60004f02be004f01be004f00be003600f90029
:100e7000004006003600f800809fbe00829fbe0042
:100e8000849fbe00869fbe003200f8003400f80048
:100e900010002000a00188000020200000d0fe00eb
:100ea00011618000f28e80000200e000020032003a
:100eb00020002000020001000cc8a9003400f90045
:100ec0003200f9004f03be004f02be004f01be00ca
:100ed0004f00be003600f900004006003600f80062
:100ee000809fbe00829fbe00849fbe00869fbe0082
:100ef0003200f8003400f80010002000a001880043
:100f00000020200000d0fe0021618000f28e8000d1
:100f10000200e00002003200300020000200010068
:100f20000ce8a9003400f9003200f9004f03be00bc
:100f30004f02be004f01be004f00be003600f90058
:100f4000004006003600f800809fbe00829fbe0071
:100f5000849fbe00869fbe003200f8003400f80077
:100f600010002000a00188000020200000d0fe001a
:100f700051618000f28e80000200e0000200320029
:100f800040002000020001000d48a9003400f900d3
:100f90003200f9004f03be004f02be004f01be00f9
:100fa0004f00be003600f900004006003600f80091
:100fb000809fbe00829fbe00849fbe00869fbe00b1
:100fc0003200f8003400f80010002000a001880072
:100fd0000020200000d0fe0071618000f28e8000b1
:100fe0000200e00002003200500020000200010078
:100ff0000d88a9003400f9003200f9004f03be004b
:101000004f02be004f01be004f00be003600f90087
:10101000004006003600f800809fbe00829fbe00a0
:10102000849fbe00869fbe003200f8003400f800a6
:1010300010002000a00188000020200000d0fe0049
:10104000c1618000f28e80000200e00002003200e8
:1010500060002000020001000e28a9003400f90001
:101060003200f9004f03be004f02be004f01be0028
:101070004f00be003600f900004006003600f800c0
:10108000809fbe00829fbe00849fbe00869fbe00e0
:101090003200f8003400f80010002000a0018800a1
:1010a0000020200000d0fe00d1618000f28e800080
:1010b0000200e00002003200700020000200010087
:1010c0000e48a9003400f9003200f9004f03be00b9
:1010d0004f02be004f01be004f00be003600f900b7
:1010e000004006003600f800809fbe00829fbe00d0
:1010f000849fbe00869fbe003200f8003400f800d6
:1011000010002000a00188000020200000d0fe0078
:1011100061608000f28e80000200e0000200320078
:1011200080002000020001000b68a9003400f900d3
:101130003200f9004f03be004f02be004f01be0057
:101140004f00be003600f900004006003600f800ef
:10115000809fbe00829fbe00849fbe00869fbe000f
:101160003200f8003400f80010002000a0018800d0
:101170000020200000d0fe0071608000f28e800010
:101180000200e00002003200900020000200010096
:101190000b88a9003400f9003200f9004f03be00ab
:1011a0004f02be004f01be004f00be003600f900e6
:1011b000004006003600f800800020000a76020099
:1011c000000000003600f800c8c8bf000080fb0027
:1011d0000010b0000a760200000000003600f8009f
:1011e000809fbe00829fbe00849fbe00869fbe007f
:1011f000889fbe003200f8003400f8001000200084
:10120000a00188000020200000d0fe00768ea800fb
:1012100020088000a0408900605222007a2a020043
:1012200000000000506180000d48a90020712200dc
:101230004075020000000000007e2200885f02006e
:1012400000000000f0702200f011e30003003e00f7
:10125000f031ec0030742500b07d8800f476020097
:101260000000000060892200022a810041892200da
:101270001193b90030024300a0824b000403be006a
:10128000a38922001302780011a2b90004025300be
:1012900085825b000488be00412bdd004f20de000c
:1012a0000000730080097800704489000291b90041
:1012b00002014100838149000300780000f0a7008b
:1012c0000080ea00f429810004a2b900040242006f
:1012d00085824a000501780002f0a7000281ea0039
:1012e0000001410082448900e1892200c389220073
:1012f0001394b90031024400a1824c000404be00e2
:10130000248a2200140178001393b90006015400c6
:1013100087815c008288be00c11add004f10de00ac
:1013200000807200000a780090448900e086220064
:101330001004e00082003a00c0388100f13e8100d4
:101340000128a30002003200628822001200a000df
:101350000118a30002003200628822001210a000cf
:101360000108a30002003200628822001220a000bf
:101370000138a30002003200618822001130a00071
:10138000117222001104e0000c0032000000e000a5
:101390000a003200f20f500008003200f30f500034
:1013a00006003200f40f500004003200f50f500028
:1013b00002003200608822001040a00081882200d4
:1013c000608822001181ea00100861008008eb00ab
:1013d0001000e00003003a0011c0b3003071220099
:1013e00001487800f08622001004e0000500320079
:1013f00011c0b3002071220001487800f08622005d
:101400000048eb00008722001004e00005003200d5
:101410000040eb0021712200804878000187220003
:101420008048780091438100a0438100808f500064
:1014300007003200a04381009143810000806800d2
:1014400003003b00407122001040a2001050a00099
:1014500040872200100378009643890090007800ae
:10146000c24381000100780000f0a7000000ea00fc
:1014700000f0a7000080ea00820f500001003d004c
:10148000020078000100e00001003d000000ea00d9
:10149000c03489007138810040002000808f5000e6
:1014a0001a0032000d003e0010002000808f500016
:1014b0001600320040002000e18f50001300390078
:1014c00020002000808f50001000320030002000eb
:1014d000808f50000c003a000c00370060002000a4
:1014e000808f50000900320050002000e68f50002d
:1014f0000600390060002000e78f50000300320032
:10150000e88f500001003200600020005044890044
:10151000b034810020448900a13481001144890045
:10152000244581000444890075448100f543890005
:1015300096448100e6438900a0308100b0438900d1
:1015400091458100601a2d00808f500005003a00ff
:10155000804581000018a300020032000000000056
:10156000feff3700210880004881220020822200ef
:101570001888500004760200000000002108800056
:101580004082220018885000768ea9003400f900ad
:101590003200f9004f04be004f03be004f02be00f0
:1015a0004f01be004f00be003600f90000400600ab
:1015b0003600f800809fbe00829fbe00849fbe0060
:1015c000869fbe00c08e80000000e0000100320057
:1015d0000000010005a8a9004f03be004f02be0095
:1015e0004f01be004f00be003600f900004006006b
:1015f0003600f800809fbe00829fbe00849fbe0020
:10160000869fbe00c068a90020002000ec68020090
:10161000000000004f03be004f02be004f01be009d
:101620004f00be003600f900004006003600f8000a
:10163000809fbe00829fbe00849fbe00869fbe002a
:10164000c608a90070002000ec680200000000003d
:101650004f03be004f02be004f01be004f00be0050
:101660003600f900004006003600f800809fbe00fa
:10167000829fbe00849fbe00869fbe00c488ab00d0
:1016800004003200c488a900a0002000ec68020019
:1016900000000000c508ab0004003200c508a90026
:1016a000c0002000ec68020000000000c528ab006c
:1016b00004003200c528a900d0002000ec68020018
:1016c00000000000c408ab0004003200c408a900f8
:1016d000b0002000ec68020000000000ffff3700af
:1016e0003600f800809fbe00829fbe00849fbe002f
:1016f000869fbe00c028a9000000eb00ec68020035
:10170000000000004f03be004f02be004f01be00ac
:101710004f00be003600f900004006003600f80019
:10172000809fbe00829fbe00849fbe00869fbe0039
:10173000c088a90030002000ec6802000000000012
:101740004f03be004f02be004f01be004f00be005f
:101750003600f900004006003600f800809fbe0009
:10176000829fbe00849fbe00869fbe00e0ad220027
:101770008007780060af220000018800c048a900ff
:1017800010002000ec680200000000004f03be00c3
:101790004f02be004f01be004f00be003600f900f0
:1017a000004006003600f800809fbe00829fbe0009
:1017b000849fbe00869fbe00b08f80000000e000c6
:1017c000010032000000010000e8a9004f03be0044
:1017d0004f02be004f01be004f00be003600f900b0
:1017e000004006000a00fa0011002000b1bf9f006f
:1017f000c0bf9f006a805700e20607004fb89700fd
:101800000080fa0000000600889fbe008a1f780052
:1018100081047800020578000e74020000000000c8
:101820000004e000fcff32000000eb000a00e000d2
:101830000c00320000047800fe730200000000007b
:101840000004e000fcff3200394078000804e800a2
:101850000c75020000000000880f5500f6ff3e00e6
:101860000a0078004f0578004f04be000000060013
:10187000000005008f1fd100d10107008f87e9000c
:101880000000e00000000600809feb00cc01070094
:101890008f87e9000000e00000000600140020002f
:1018a00002023700f4ff2f00000237000001be00e3
:1018b0001c0007000470a70003f0a10003f8a300b8
:1018c00013003a006509b10010003200090035002c
:1018d0006928e10002003500010028000000050031
:1018e00000004000818048008502e900fcff3a00ca
:1018f00000000600f88f4200050035008100d1008d
:101900000080d3008502e800fcff3a0000000600da
:101910008000eb00000005004f89de0082017800a6
:10192000fd013700c70ade00f107b200f50fb20073
:1019300008003200e1cf4200020032000170a00036
:1019400024000500810f700001003200040805002a
:1019500044000500810f700002003a0014000500e9
:101960008502e9000000400081c04800fcff3b0008
:101970000170a000240005006022b80006022000cb
:101980000000d0008180d2000482d2008582d20083
:101990000000a0000202520083825a0003003100be
:1019a0000202420083824a000000a1000603e9000f
:1019b000f3ff3a0000000600efff07000400be003e
:1019c00000000600889fbe008a9fbe008c9fbe005c
:1019d0001b0020000202be000586680006002800e9
:1019e000060666004709de00f20fb20082003200f0
:1019f0000243e80080003200c729de00f30fb20086
:101a00007d0032000343e8007b003200f107b200a2
:101a10000170a000f507b2000570a000c708dd0046
:101a20004903de00868070004700dd00c72add0024
:101a30004923de00868272004722dd000305510043
:101a4000040350008583580003003100000040006b
:101a5000818048000a05e9008c1f78008a9fbe003b
:101a600004005000858058000402420085824a002c
:101a700000004000818048000005eb000004be002b
:101a80006033b8000406be000d48e1005600310086
:101a9000050009004dccd8000c01b8000d02b800bb
:101aa0008481410060824a008283530003045c0009
:101ab00084845c0060055d000a00e00025003a00b7
:101ac000800578000d40e100490031008800780071
:101ad00007007800050009004d88d8000c01b80007
:101ae0000d02b8008481410060824a006003110049
:101af00083835b0004045c00e0845c000900e00078
:101b000021003a004f01be000300e0002b0032002c
:101b1000e3016000070673008c8171000100320050
:101b2000640070004200de004e5edd000c007000bc
:101b3000c258de0001e0a0009b000700cf01780042
:101b4000818071004f06be004f05be004f04be00ed
:101b5000000006008c8343000d044c00e0844c0020
:101b600060054d000000e9000a00e000d4ff3200eb
:101b70008c8343000d044c00e0844c0060054d0054
:101b80000000e900ceff37000c0343008d834b00bb
:101b900060044c00e0844c000000e9000900e00013
:101ba000d8ff32000c0343008d834b0060044c00cf
:101bb000e0844c000000e900d2ff37004200de0064
:101bc0004e5edd000c007000c258de0001e0a00097
:101bd000cf0178000300e000daff3200600010005f
:101be000e0801800d7ff3700f0ff2f00aaff370072
:101bf000f0ff2f00b9ff37000404be0050000700bb
:101c0000870678000004fd008104fd004c000700f9
:101c1000078366000678a300030032000960a7006e
:101c20000800be002c0037000d78a300020032002f
:101c30000800be00280037000778a30026003a00fd
:101c400001f0a10009f0a1000668a3000300320022
:101c5000f1ff2700f0ff2f00baff37000d68a30047
:101c6000030032000800be008c807000b5ff370012
:101c70000768a30007003a000648a30003003200eb
:101c8000f1ff2700f0ff2f00aeff37000d48a30043
:101c9000030032006000b8008c807000a9ff37009c
:101ca0000748a3000400320001f8270000002000cc
:101cb0008c807000a3ff37008e0007000004fd0039
:101cc0008104fd00020578008a0007000802be00ba
:101cd0008a01780059ff37000160a000120220003d
:101ce0000290880097ff37000100e00012003200e8
:101cf0000500e00010003200889fbe008a9fbe00f1
:101d00008c9fbe000006eb0001f8a3000300320028
:101d100060001000e08018000cf0a00005f8a3009f
:101d20000300320060021200e0821a000cf0a200f0
:101d30008005eb0041ff37006000b800020005009d
:101d40002700200001f0a70017002000470bde004d
:101d5000f60fb200040032000643e8000a00320029
:101d60004702b3000000060001037800f607b20046
:101d70000603700002003a000703b30000000600eb
:101d80008702b3000000060001037800f607b200e6
:101d900006037000020032000770a0000000060079
:101da0000760a000000006008101700027003200db
:101db0008002eb0001f8a300030032006000100075
:101dc000e080180015002000f40720000202420005
:101dd00020003400f7032000870360000604200081
:101de0000003630002082000000161004700de00dc
:101df000c909dd0000807100c708de000600e000b0
:101e00000800320087037100060032001000b000a5
:101e10000180b0000188a30002003200c108de008a
:101e20000402e800f107b200f30f20000320e100f4
:101e300003003d004722dd008100720029003700c9
:101e400001f827000000eb00260037006000b80012
:101e500000000600680212007f20e100020034004a
:101e60006000b8001f0037006011b8007020e1006a
:101e70000400350080017800010078008000eb004c
:101e8000700252000400e00009003400f003120068
:101e90000719dd008419de000703dd00868171006b
:101ea0000400de00070bdd00060070008408de0081
:101eb000f7ff270083836300870371000600280073
:101ec00003036300070032000700e00003003a004c
:101ed0006101600002817300020032001000b00056
:101ee0000180b0000500a6000000060001f0a0007f
:101ef000000006004f0ade004709de00f107b200cd
:101f0000f20fb2000b003200f207b1000170a00026
:101f1000c708dd00c901de00838070004700dd00d6
:101f20000400a6000000060060001000e080180019
:101f300000000600810f700001003a00000006005a
:101f40008182cf000500e00010003e008082cf00bb
:101f5000ee8242007028e1000400390007003e00d4
:101f6000800078000000eb000e0037007083120044
:101f70008600de000500dd000a0037007083520095
:101f80008600dd000000eb0006003700e282520010
:101f90008508dd00708312000603de008680700075
:101fa0000500dd007507b0000501ea000400a60089
:101fb0000000060060001000e0801800000006002d
:101fc000889fbe008a9fbe008c9fbe000404be0096
:101fd0000605be00809fbe00829fbe002100070054
:101fe000040678000800be000a01be001d000700bc
:101ff000840678004f03be004f02be008d4f76006e
:102000007fb0970013003300f0ff2f008b8f6b0021
:1020100006003b000d0666000c00a7000a00370012
:1020200007f0a600100020000a003700880f5200b9
:10203000898f5a008a0f5b008b8f5b000300390089
:102040001000200001003e000000200007f0a70063
:102050000000ea004f06be004f05be004f04be0060
:102060000000060005ff270005826100070032001e
:102070000428e100010032002400050006000700ea
:1020800001003a00440005000408050002000700b2
:10209000f9ff3a00140005006f82610081027000b0
:1020a000850271008502720000000600889fbe0054
:1020b0008a9fbe00841f78007c0007004f007800d4
:1020c00011003300f0ff2f00838f6c0006003b00ef
:1020d000040565000a00a7000800370009f0a60003
:1020e0001000200008003700820f5400838f5c002e
:1020f000030039001000200001003e000000200015
:1021000009f0a7000000ea004f05be004f04be0022
:102110000000e00000000600881f7800030478003b
:102120000300e00007003d0060001000e0801800a0
:1021300060011900e081190002003b0001f02d0050
:10214000030037000400070008f0a70001f0a0001a
:102150004f04780000000600889fbe008a9fbe00e2
:1021600000827000040271000482710026003200b7
:102170000004be000200be006011b8006b09200020
:10218000950220000182cf000a0039000541b1000c
:102190000082cf00070039000541b1000982cf005d
:1021a000040039000541b1000882cf000100390068
:1021b0000541b10005425200120032000a003b0006
:1021c00082817100610164008100d1000080d30030
:1021d0008984d3000884d3008b05e8000442e8001a
:1021e000f7ff3a00070037000804440089844c00d8
:1021f00000004800818048008b05e9000442e900a6
:10220000f9ff3a00030007004f05be004f04be006f
:102210000000060081002000618055000b003d0099
:102220000b00200061fe2f000100e1001d003400c2
:1022300082817100610164008904d1000884d300a7
:102240000000e800faff3a0071002000610064001d
:1022500003007000020060000900320061044400c5
:10226000e0844c000988a500050032008b05e800d9
:102270006808e10002003a008904d1000884d30014
:10228000f20f20000258e10005003d00c75ddd00af
:10229000f907b20089807500080078000000060088
:1022a0000bf827008b007800000005000004be003a
:1022b0009cfd07000003be000405be000200be0036
:1022c00098fd0700844f7500000006000000fa002a
:1022d00068815700cfb8970000688100100078002f
:1022e000410007000080fa0000000600800178002d
:1022f00002003700b15978000201e9000200e00055
:10230000fcff3a000000060001688100910078009f
:102310009d020700110020000000e00005003500cc
:102320000068810090007800a000200041030700b1
:10233000cf00de000100ea000000060000000600f9
:10234000ea874700889fbe008a9fbe008e1f7800e4
:1023500000047800030078007287570084e22600aa
:1023600055c72600049fbe00c3962200030f7800c5
:102370006c875700004feb0011059000a1049000fe
:10238000910578000200e0000200320002077800a8
:1023900001003700728757000000e00002003a0099
:1023a0000e007800240307000a00e0000300350057
:1023b0008a0f5000010036000a0078000b027800f6
:1023c00089017800000178008e007800080078000c
:1023d000300007004f0778004f05be004f04be00d5
:1023e000af00b100000006000200fa00881f78006c
:1023f00000047800e2bf9f00648157000800780065
:10240000e5010700980090000148a3000100320098
:102410000080eb004f0478000080fa000000060006
:10242000889fbe0000047800480090008204780075
:10243000808f540001003600800478000901780084
:1024400058009000a9ff07005800900009004000c4
:1024500050049800c80090008984500049049800f6
:102460000048eb004f04be0000000600100078009a
:10247000e5fc3700900190000388a30001003200c2
:10248000e7ff37000348a30001003a00f7ff070009
:1024900000000600f2874700889fbe008a9fbe00aa
:1024a0008c9fbe008e1f78008004780001057800a4
:1024b00002047800830578006107620002003a0098
:1024c0008b0f540008003900080178008a0078005a
:1024d00009007800e7ff07008b0f54000200390065
:1024e000880578001e003700088655000c0178002a
:1024f000f00f56000100360002012000010220000a
:102500007e805700500207008c06780005003700d7
:1025100002012000fe80570009007800d5ff070067
:10252000f0865600ef8f5600f9ff3e004461de0052
:1025300000ff2f008091b9000c014100fe80570080
:1025400009007800cbff07000e00e00004003a000d
:10255000080178008a00780009007800c5ff0700ac
:102560000b0078004f0778004f06be004f05be00f5
:102570004f04be002f01b10000000600000005005e
:1025800000000500000178000040eb008080fb00a7
:1025900081804000a3d42200818141001342780051
:1025a0000404e00004003a00b0d42200810040009e
:1025b000114078000000060092017800934f52000d
:1025c00005003a00b0d4220081004000114078009c
:1025d0000309e800010037000040e800ea4f50001e
:1025e000eaff360000000600f6874700889fbe001d
:1025f0008a9fbe008c9fbe008e1f78000005780069
:102600000104780083057800040678000000eb00e0
:10261000c0b79f008080eb00d1b79f00e0b79f005c
:10262000f2b79f000008200080bf9f00980078004c
:10263000010078008004eb00010037008904e80005
:10264000304178000204e0000300320053c2b300be
:10265000834f5100f9ff3a000900e0000400320006
:10266000090178000a00780082ff0700188c4400f6
:102670001807780050c2b3009e4f10003f013a0087
:102680000e07e8000e0c780010003700cfb097005e
:102690000100a0000b003700cfb097000110a00090
:1026a00008003700cfb097000120a00005003700d8
:1026b000cfb097000130a00002003700cfb09700e4
:1026c0000140a000c1b79f00000ce800180078008e
:1026d00090407800b2c2b30082cf5000f1ff3200c8
:1026e00007003c0002c2b30082cf5000f0ff32006e
:1026f00032c2b30082cf500007003a00efff37002c
:10270000d2c2b30082cf5000e0ff320002c3b30058
:1027100082cf5000e0ff3200a2c2b30082cf50004f
:102720000d003a00000ce8001c80e900000e780063
:1027300010007800e0b79f000000e0000f003d00af
:10274000cfb097000100a200c1b79f000000ea00cf
:10275000e0b79f000900370065010700e0b79f0060
:1027600001003700000ce800180078009000fb0022
:102770000103b100e98f5000faff36004fb0970017
:102780000008a300020032000010a100c0b79f00a3
:1027900018007800e1c2b30090cf100016003a0094
:1027a0008000eb00d1b79f000000e800000c78002b
:1027b000a1c2b30090cf100006003a00000ce80060
:1027c0001c80e900000e780010007800d0b79f0050
:1027d0000900370046010700d0b79f00010037000d
:1027e000000ce800180078009000fb000103b10025
:1027f000e98f5000faff36000800780061ff0700fb
:1028000080467800180078001000fb002c020700ba
:1028100091062000810f50003800320012003c0069
:1028200041062000810f5000340032000a003c00b5
:1028300011062000810f50002000320031062000d8
:10284000810f5000a000320051022000810f500083
:10285000bc003a00b400370071062000810f500020
:10286000b8003c008800370001072000810f5000ad
:102870005c00320007003c00e1062000810f5000a0
:102880007a003200f1062000810f5000ad003a00be
:102890003900370051072000810f50002700320017
:1028a00081072000810f50004200320031072000d4
:1028b000810f5000a3003a008f0037008d80fb008d
:1028c0000c01780000fe2f000f00400002020700fc
:1028d0000000e000a800320018007800000ce800ba
:1028e0009041780002fe2f000f014100f880570050
:1028f0000a00780022ff07000e0037008d80fb00e1
:102900008c0178001200200000fe2f000f00400014
:10291000100207000000e00097003200180ce800e9
:1029200002fe2f000f014100f88057000a007800d6
:1029300012ff070080844400900037008d80fb0068
:102940008c0178000001eb0000fe2f000f0040001a
:10295000000207000000e00087003200180ce800c9
:1029600002fe2f000f014100f88057000a00780096
:1029700002ff0700efff37008d80fb008c0178001d
:102980000001eb0000fe2f000f004000f1010700e6
:102990000000e00078003200180ce80002fe2f0072
:1029a0000f014100f88057000a007800f3fe07008d
:1029b000e0ff37008d80fb008c0178000001eb0008
:1029c00000fe2f000f004000e20107000000e000c1
:1029d0006900320018007800000ce800904178008f
:1029e0001c0037008c0178000001eb00010f200073
:1029f00000fe2f000f004000d60107000000e0009d
:102a00005d003200180ce8000fb097009fb09700ef
:102a10002fb19700bfb19700e00f5000e08f580032
:102a2000e00f5900e08f590009003a00cfb5970038
:102a30006fb4970020d422007f0107000b027800ba
:102a4000880178000001780021d422004700370077
:102a500083c7b30002fe2f000f014100f88057002a
:102a60000a007800c6fe0700b2ff37000b81440061
:102a70008d80fb008c01780000fe2f000f004000cd
:102a8000080207003c0037008d80fb000c01780035
:102a900000fe2f000f0040008f0107000000e00043
:102aa0003500320018007800000ce80090417800f2
:102ab00002fe2f000f014100f88057000a00780045
:102ac000affe07009bff370000c8b30080cf560061
:102ad00029003a00180ce8001c80e900000e78007c
:102ae00010407800e0df9f0013002000e2fd2f007f
:102af0000f0141000800370000c8b30080cf560026
:102b00001d003a00180ce8001c80e900000e780057
:102b10008001eb0010017800f88057000a0078006f
:102b200007fe070083ff370000c8b30080cf5600c0
:102b300011003a00180ce8004fb29700efb197006f
:102b4000080037000e0c78000000eb00c0b79f00b3
:102b5000e0b79f000080eb00d0b79f000002eb00c1
:102b6000840178001200200081d422000a0078003d
:102b700048fe07006fff3700180ce80009007800d6
:102b80004f0778004f06be004f05be004f04be0041
:102b90006f01b100000006008200fa00889fbe00ad
:102ba0008a1f78000005780082047800c13f9f00ea
:102bb0000004eb001000370009027800880178005b
:102bc000a2f72f000f01410081f72f008f804000f6
:102bd0000a00780084fe070008004000880f5000bb
:102be00004003d00b0042000f05789000084eb0091
:102bf00004003700000478004f3897001004e0000c
:102c0000edff3a00080078004f0578004f04be0041
:102c10000080fa0000000600889fbe000004be008d
:102c20000000eb000800e0002500320018009000d2
:102c30000058a30011003200d800900068009000f6
:102c4000808f500009003600b80990000001eb00a9
:102c5000820078000800780003000100d80090008e
:102c60000080eb000100e000150032000000eb00e6
:102c7000200c98006004980050049800780a900096
:102c800008109000800f5200060031000002520030
:102c900011002000cfa2de00612bb90018007800df
:102ca000630007000000eb0000149800700c98000f
:102cb0000900e0000200320018007800c9fa07009d
:102cc0004f04be00000006008000780010002000c5
:102cd00002022000828f500004003200e980500080
:102ce000e48f5000010036000000eb0000000600f9
:102cf000889fbe008a1f7800000578000a047800cb
:102d0000984478000805e8000900fb00eeff070082
:102d10000000e000f9ff3a00b0c2b30080cf5400d9
:102d200005003200d0c2b3008000eb0080cf540019
:102d300005003a00020037008000eb000100370078
:102d4000110020000804e8000000eb000300370039
:102d5000ea00b900020050000003b0003801fb0097
:102d600003fd2f0082814100e98f5100f8ff3600fa
:102d70000100e00001003a000000ea004f05780081
:102d80004f04be0000000600889fbe008a1f780026
:102d9000800478000105780009007800a60007008b
:102da000000478008a0178000801780011002000f2
:102db0000900780008000700800078000080eb0020
:102dc000888f500001003a000000eb004f057800aa
:102dd0004f04be0000000600889fbe008a1f7800d6
:102de000810478000204780089c5b9000900e00078
:102df00001003a000004eb000a017800800078002e
:102e00000300780099fd0700800078008a8f500049
:102e100003003200050009008980d8000004780012
:102e2000080078004f0578004f04be00000006003f
:102e3000a0fd2f00f1ff2f00970007004f89de0053
:102e40008201780000000600889fbe008a9fbe00b5
:102e5000800478000200e0005b003200014078004e
:102e6000814c780082814400f1f99f00e20f51000b
:102e70005500360091449800a1449800e1f99f0064
:102e8000d1f99f00e60f51004f003600b144980081
:102e9000c1f99f00e80f51004b0036000905ea0018
:102ea000630565000a8444000a055100c1ff2f0034
:102eb000010565000080fb008000eb00121020007f
:102ec0001310200050010700008cbe000a014400ce
:102ed00060b99f0071b99f00e80f55003a003600b5
:102ee0002004980031049800400498005104980090
:102ef00020b99f0031b99f0040b99f0051b99f0090
:102f0000f80f5500300036006004980071049800f6
:102f1000000c9800110c9800200c9800310c9800bf
:102f2000400c9800510c980020b19f0031b19f00d7
:102f300040b19f0051b19f0060b19f0071b19f00ef
:102f400000b99f0011b99f0064016400780141003d
:102f500002044400020555006011b8000203be00df
:102f60000002be000403be006022b8000000720030
:102f700081807200020173008381730010003700aa
:102f8000009cbe000294be004004980051049800ca
:102f90006204980073049800000c9800110c9800cb
:102fa000220c9800330c9800400c9800510c9800ab
:102fb000620c9800730c98000a02b1000802b0007d
:102fc000ff0f5500eeff3e00090078004f05be00e0
:102fd0004f04be00000006000200fa0081017800e4
:102fe000e0ff9f00930090000188a30005003200dd
:102ff000d3009000805878000080fb00d101980039
:103000000a003700120020008f80e90003007800da
:1030100016fd0700800078000080eb000100e00052
:1030200002003200eff897000180fb000080fa00f8
:1030300000000600e8ff3700800078000400370039
:103040003104e00002003a000000510000000600d8
:10305000010178000108a300f9ff3a00810178001e
:1030600031017800f4ef2f00020242000281ea00f1
:10307000020162000408280004016100f7ff320029
:1030800083007800010178003104e000fdff3a0080
:10309000000051000000060002002f00f3ff2f0087
:1030a000820f5000838f5800040036000000ea00b1
:1030b000f05789000080eb008080eb0000000600e4
:1030c000f1fb2f0080804000f98f500001003e008e
:1030d0000050a00000000600881f7800000478005f
:1030e00000082000808f50001700350010082000d5
:1030f000808f50000b00340030082000808f50007b
:1031000011003a00920078006880500000097800b1
:103110003002be002003be00049cbe000694be0028
:10312000070037009202780064805200000978009e
:103130001000be0095000700009cbe000294be0077
:1031400010002000010037000000eb004f04780061
:103150000000060084082000848f50001d0032000b
:103160000d003c0014082000848f5000270032001e
:1031700002003c000408200004003700240820005e
:10318000848f50003400320044082000848f5000a7
:1031900043003a0036003700040a2000848f5000b4
:1031a0002700320004003c0004092000848f5000f6
:1031b0003b003a0028003700020c2000828f5000ac
:1031c0002f003200020f2000828f500034003a009e
:1031d0002b0037009380e9000200e0000500320078
:1031e000810978001102fb00cfa2de00612bb9003b
:1031f0002800370081097800114278000482fb0022
:103200008002eb006033b800220037001302780020
:10321000e40052000200e00005003200810978005d
:103220001102be004fabde008603780019003700a4
:10323000810978001102be006033b8001500370024
:103240009380e9008109780011027800cfa2de00a6
:10325000612bb9000f00370093027800e88052001c
:10326000810978003102be002103be000900370049
:103270009380e9000200e00002003200f1ff370015
:103280009380e90081097800110278008002eb0048
:103290006033b8000498be000690be001000050020
:1032a0000000050044082000848f500025003200f3
:1032b00008003c0014082000848f500014003200e5
:1032c00024082000848f50002400320004082000cd
:1032d0000c00370004092000848f50001f003200ca
:1032e00004003c0084082000848f500024003a0031
:1032f0000e003700040a2000848f500011003200b5
:10330000040c2000848f50001d003a000d0037008f
:103310009380e90081097800910078000108780025
:10332000cf91de008288be00140037009380e90050
:1033300081097800910078000108780082487800bf
:103340000e0037009380e900810978009100780031
:103350000108780082087800080037009380e900af
:103360008109780091007800010878006112b900a5
:10337000612bb9008498be008690be001000050045
:103380000000050000c0da0000000600810378009c
:1033900064f907000001be006000b8000478a300d3
:1033a00013003a006220e10015003e000d003900d4
:1033b0008301d1000281d3008180d3008301d10039
:1033c0000281d3008180d3008301d1000281d30028
:1033d0008180d3000538b000c42add00f300b200bc
:1033e0008381720007f0a70003f0a0000000060030
:1033f00083ff2700020020006110b900f9ff3700a9
:1034000003ff2700f7ff3700020ab900001bb900cd
:103410000200b80081004200810043000000060065
:020000040000fa
:103420000d1b00005b4b00002020000045520000f7
:10343000524f0000523a0000204700006f74000015
:10344000206100002062000061640000206d000027
:103450006f7400006f720000207300007461000040
:1034600074750000730000000a0a00000a4f000093
:103470007665000072720000756e0000210a00007f
:103480000a000000ffff0000c61e00004a1e0000e8
:1034900000220000b4220000782a00000000000092
:1034a000000000000000000000000000000000001c
:1034b00000000000010000001c11000000000000de
:1034c0000000000044650000632000003138000067
:1034d000203200003031000039310000303a000065
:0c34e000333400003a31000033000000db
:020000040000fa
:1034ec001800fa00889fbe008a9fbe008c1f7800cf
:1034fc0000067800f4af9f0085b79f0096b79f0039
:10350c00a7b79f002c709000ef4060000068a300ec
:10351c000b003200e4cf50003b003200e8cf5000eb
:10352c004e0032000046eb000c4078004f0678004d
:10353c004f05be004f04be000080fa0000000600dc
:10354c000058a30018003200e2cf50006700320090
:10355c008c003e00e1cf5000f2ff3a008c699000e5
:10356c000c6090006fda97003c299000e10f51003d
:10357c00250132000046eb0080cf5100eaff3400f9
:10358c0001467800844f5000e6ff35000c4078006f
:10359c004f0678004f05be004f04be000080fa00b5
:1035ac0000000600e6ff3700e2cf50006200320058
:1035bc00a6003e00e1cf5000daff3a008c69900083
:1035cc000c6090006fda97003c299000e10f5100dd
:1035dc00000132000046eb0080cf5100d2ff3600d4
:1035ec0001467800844f5000ceff39000c40780023
:1035fc004f0678004f05be004f04be000080fa0055
:10360c0000000600ceff37004c109000dc1090003c
:10361c000c1490009c1490007fad97008fb5970010
:10362c003c2e9000e10f5600870132000801be00cd
:10363c0099f807000000e000baff34001cc0b3008a
:10364c000801be000a00be0091f807000000e0006f
:10365c00b5ff34000046eb00b3ff37004c10900070
:10366c00dc1090006c119000fc1190000c14900078
:10367c009c1490002c159000bc1590007faa97000c
:10368c008fb297001fb39700afb39700b4b79f00ea
:10369c00c5b79f00d6b79f00e7b79f003c2e9000a0
:1036ac00e10f5600530132000802be000a03be00af
:1036bc0072f807000000e0009aff34001cc0b30051
:1036cc000802be000a03be003fb09700cfb09700bf
:1036dc005fb19700efb1970063f807000000e000be
:1036ec0091ff34000046eb008fff37004c11900027
:1036fc000c109000ffa99700bc289000e18f50009f
:10370c00db0032000046eb00800f510086ff3400d6
:10371c001cc0b300830f500082ff35000c407800b2
:10372c004f0678004f05be004f04be000080fa0023
:10373c000000060082ff37004c1190000c10900026
:10374c00ffa99700bc289000e18f5000bb0032000d
:10375c000046eb00800f510073ff36001cc0b30015
:10376c00830f50006fff39000c4078004f06780033
:10377c004f05be004f04be000080fa00000006009a
:10378c006fff3700e4cf50007a003200e8cf5000d2
:10379c0064ff3a004c149000dc1490006c159000ff
:1037ac00fc159000f8b79f0089bf9f009abf9f003f
:1037bc00abbf9f000c1090009c1090002c1190003f
:1037cc00bc119000b4b79f00c5b79f00d6b79f003f
:1037dc00e7b79f00bc2a9000e18f5200ea0032004c
:1037ec000046eb007fb497008fbc97001fbd97007d
:1037fc00afbd97000040e10001c8e10002d0e1003c
:10380c0003d8e10048ff34001cc0b3003fb297005e
:10381c00cfb297005fb39700efb397000400e100bd
:10382c000588e1000690e1000798e1003dff3500b6
:10383c000c4078004f0678004f05be004f04be00c8
:10384c000080fa00000006003dff3700e4cf500076
:10385c0030003200e8cf500032ff3a004c14900098
:10386c00dc1490006c159000fc159000f8b79f00cc
:10387c0089bf9f009abf9f00abbf9f000c109000a8
:10388c009c1090002c119000bc119000b4b79f00bc
:10389c00c5b79f00d6b79f00e7b79f00bc2a900022
:1038ac00e18f52009d0032000046eb007fb4970080
:1038bc008fbc97001fbd9700afbd97000040e10083
:1038cc0001c8e10002d0e10003d8e10016ff360088
:1038dc001cc0b3003fb29700cfb297005fb3970004
:1038ec00efb397000400e1000588e1000690e100c9
:1038fc000798e1000bff39000c4078004f06780068
:10390c004f05be004f04be000080fa000000060008
:10391c000bff37004c129000dc1290000c10900042
:10392c009c1090007fab97008fb397003c299000c0
:10393c00e10f51006a0032000046eb00800f52008c
:10394c00818f5a00f8fe36001cc0b300860f500061
:10395c00878f5800f3fe39000c4078004f06780032
:10396c004f05be004f04be000080fa0000000600a8
:10397c00f3fe37004c129000dc1290000c109000fb
:10398c009c1090007fab97008fb397003c29900060
:10399c00e10f5100430032000046eb00800f520053
:1039ac00818f5a00e0fe34001cc0b300860f50001b
:1039bc00878f5800dbfe35000c4078004f067800ee
:1039cc004f05be004f04be000080fa000000060048
:1039dc00dbfe37000046eb0080cf5100d2fe3100f9
:1039ec0002467800844f5000cefe3e000c4078001a
:1039fc004f0678004f05be004f04be000080fa0051
:103a0c0000000600cefe37000046eb0080cf5100d0
:103a1c00c5fe3d0002467800844f5000c1fe3c00bc
:103a2c000c4078004f0678004f05be004f04be00d6
:103a3c000080fa0000000600c1fe37000046eb00d3
:103a4c00800f5100b8fe310001467800830f500002
:103a5c00b4fe3e000c4078004f0678004f05be00c7
:103a6c004f04be000080fa0000000600b4fe3700d0
:103a7c000046eb00800f5100abfe3d000146780084
:103a8c00830f5000a7fe3c000c4078004f067800d6
:103a9c004f05be004f04be000080fa000000060077
:103aac00a7fe37000046eb00800f5200818f5a00b2
:103abc009dfe3d0002467800860f5000878f58000f
:103acc0098fe3c000c4078004f0678004f05be0075
:103adc004f04be000080fa000000060098fe37007c
:103aec000046eb00800f5200818f5a008efe310091
:103afc0002467800860f5000878f580089fe3e00e2
:103b0c000c4078004f0678004f05be004f04be00f5
:103b1c000080fa000000060089fe37000046eb002a
:103b2c007fb497008fbc97001fbd9700afbd970067
:103b3c000040e10001c8e10002d0e10003d8e1003f
:103b4c0079fe3100054678003fb29700cfb297005e
:103b5c005fb39700efb397000400e1000588e10024
:103b6c000690e1000798e1006efe3e000c407800e4
:103b7c004f0678004f05be004f04be000080fa00cf
:103b8c00000006006efe37000046eb007fb4970085
:103b9c008fbc97001fbd9700afbd97000040e100a0
:103bac0001c8e10002d0e10003d8e1005efe3d0057
:103bbc00054678003fb29700cfb297005fb39700ed
:103bcc00efb397000400e1000588e1000690e100e6
:103bdc000798e10053fe3c000c4078004f0678003b
:103bec004f05be004f04be000080fa000000060026
:103bfc0053fe37000802be000a03be001af7070086
:103c0c000000e00047fe3d000802be000a03be00b3
:103c1c003fb09700cfb097005fb19700efb197001e
:103c2c0016f707000000e0003efe35000c4078005f
:103c3c004f0678004f05be004f04be000080fa000e
:103c4c00000006003efe37000801be0010f707001a
:103c5c000000e00033fe3d000801be000a00be007b
:103c6c000df707000000e0002efe35000c40780038
:103c7c004f0678004f05be004f04be000080fa00ce
:103c8c00000006002efe3700889fbe008a9fbe00f3
:103c9c000088eb008001eb00130098000042eb0061
:103cac00235098002300980034509800330098005b
:103cbc0044509800430098005450980053009800ca
:103ccc00645098006300980074509800730098003a
:103cdc00045898000308980014589800510898004c
:103cec006044b8006055b80008109800191098008e
:103cfc002a1098003b109800481098005910980012
:103d0c006a1098007b109800031898002470980093
:103d1c00231898006033b80036189800471898009c
:103d2c0024789800347898006318980073189800d9
:103d3c000320980024c09800262098003720980073
:103d4c00462098005720980044c898007620980088
:103d5c0007289800122898002328980011002000aa
:103d6c00312898006208980073089800e18f800051
:103d7c00c00898004f05be004f04be0000000600ae
:103d8c000800fa00889fbe008a9fbe008c9fbe0070
:103d9c00000678002c189000e60f500019003e0029
:103dac00e50f5000370039008c1890002c709000f3
:103dbc006f406000e24f50008201320031013e0042
:103dcc00e14f50004e0132006fb29700ffb29700e6
:103ddc000fbb97009fbb97000c007800c0fd07003d
:103dec000004e0001901320040002000201e980061
:103dfc004f06be004f05be004f04be000080fa0007
:103e0c0000000600e70f500084003200e80f50005d
:103e1c00f7ff3a007c189000ec1890000001e800c5
:103e2c00721e9800810f5000f1ff39000000eb006a
:103e3c00701e98002c7890000080fb008000eb0036
:103e4c004c219000dc219000000041008180490051
:103e5c004026980051269800e00f5000e08f580043
:103e6c00e3ff350020002000201e98004f06be0006
:103e7c004f05be004f04be000080fa000000060093
:103e8c00e0ff3700e20f5000a4003200e40f5000b6
:103e9c00d8003200e10f5000d5ff3a007c1890009a
:103eac00ec1890000001e800721e9800810f500081
:103ebc002d0039000000eb00701e98003c1990009a
:103ecc00cc1990002c7a90000482fb008002eb004d
:103edc0004024100858249006c089000fc089000a7
:103eec00800f5200818f5a00030036006011b80019
:103efc00321e9800431e98008046eb008d83fb0019
:103f0c000040eb000703e800f28343000603430084
:103f1c00dc0890000082fb00ec027b00e5427a009a
:103f2c008570790061014100e0814900321e9800e2
:103f3c00431e98000040e800ecc07b00814f50000d
:103f4c00f3ff39008d46e8003c78900080cf560096
:103f5c00eaff39007c2090008c289000820f5000e2
:103f6c00838f5800e30036008c1890002c70900062
:103f7c006f406000e24f50001a013200cc003e004e
:103f8c00e14f5000f10032000802be000a03be00ef
:103f9c000c00780052fd07000004e000a100320084
:103fac004cc890000004e0009e0032002c209000d1
:103fbc00bc209000e00f5000e08f5800e800350066
:103fcc003c189000cc189000e00f5000e08f580087
:103fdc00f00032007c1990000200e000f4003a007e
:103fec002c7990000281fb008001eb000200500054
:103ffc0083805800402698005126980070002000bd
:10400c00201e98004f06be004f05be004f04be0098
:10401c000080fa00000006007aff37007c18900040
:10402c00ec1890000001e800721e9800810f5000ff
:10403c006fff39000000eb00701e98003c199000d7
:10404c00cc1990002c7a90000482fb008002eb00cb
:10405c0004024100858249006c089000fc08900025
:10406c00800f5200818f5a00040036006033b80074
:10407c00361e9800471e98006011b8000044eb00f3
:10408c008883fb000040eb000703e800f283430049
:10409c0006034300dc0890000082fb00ec027b006e
:1040ac00e5427a008570790061014100e0814900a8
:1040bc00321e9800431e98000040e800ecc07b00c4
:1040cc00814f5000f3ff39000844e8003c78900021
:1040dc00804f5400eaff39004c209000dc20900007
:1040ec0002015000838158002c209000bc209000cd
:1040fc00800f5100818f590074003e000000eb00ce
:10410c00201e98004f06be004f05be004f04be0097
:10411c000080fa00000006003aff37007c1890007f
:10412c00ec1890000001e800721e9800810f5000fe
:10413c00270039000000eb00701e98003c1990001d
:10414c00cc1990000044eb008883fb000040eb008e
:10415c000703e800f283430006034300dc089000e9
:10416c000082fb00ec027b00e5427a00857079004e
:10417c0061014100e0814900321e9800431e980005
:10418c000040e800ecc07b00814f5000f3ff390089
:10419c000844e8003c789000804f5400eaff390056
:1041ac002c7890000080fb008000eb0002014000a6
:1041bc00838148006c089000fc089000800f51002f
:1041cc00818f5900020036000000eb00201e980081
:1041dc000c2090000000e800002698004f06be005e
:1041ec004f05be004f04be000080fa000000060020
:1041fc0004ff37000c2090000000e8000026980017
:10420c007c1890000000e800701e98004f06be005d
:10421c004f05be004f04be000080fa0000000600ef
:10422c00f8fe370048169800591698006a16980040
:10423c007b1698004f06be004f05be004f04be0013
:10424c000080fa0000000600eefe37006fb0970009
:10425c00ffb097000fb997009fb9970040169800d0
:10426c005116980062169800731698004f06be00ff
:10427c004f05be004f04be000080fa00000006008f
:10428c00e0fe3700e44f500026003200e84f5000ab
:10429c00cdfe3a003102be002103be00e4b79f0000
:1042ac00f5b79f0086bf9f0097bf9f00c6fe3700e3
:1042bc00e44f500022003200e84f500032ff3a0029
:1042cc003104be002105be002fff37001c2a9000d0
:1042dc00ac2a90000201420083814a00820f5000f8
:1042ec00838f5800c2fe39000000eb00201e98009e
:1042fc0084ff370010c0b30040ce98001aff37007f
:10430c00114078000082fb008002eb006033b800a3
:10431c00e4b79f00f5b79f0086bf9f0097bf9f0033
:10432c00a9fe37001102be006033b800e4b79f004d
:10433c00f5b79f0086bf9f0097bf9f00a2fe370076
:10434c001104be006055b8000fff3700114478000f
:10435c000884fb008004eb006055b8000aff3700ae
:10436c0040269800512698006022b800341e980010
:10437c00451e980080002000201e98004f06be00ad
:10438c004f05be004f04be000080fa00000006007e
:10439c009cfe37002c7890000080fb008000eb0026
:1043ac001c299000ac29900000005100818059001c
:1043bc00402698005126980070002000201e98007e
:1043cc0010ff3700110078006102b8006033b800ac
:1043dc00e4b79f00f5b79f0086bf9f0097bf9f0073
:1043ec0079fe3700110478008004eb006055b800aa
:1043fc00e5fe37004071900082487800307a9000da
:10440c009440980040799000a2409800507a900017
:10441c00b440980060719000c24098003019900030
:10442c00c0199000481add004811de00020172002c
:10443c00c819de00d240980000799000e240980044
:10444c00107a9000f440980020599000824898000f
:10445c0050099000cf91de00481add004811de00b3
:10446c0002017200c819de009248980050099000b1
:10447c00cf91de00a348980050099000cf91de0048
:10448c004819de00b248980040c19000c24898001c
:10449c0020219000b0219000481add004811de0068
:1044ac0002017200d248980060c19000e248980066
:1044bc0070c29000f448980000c990008250980097
:1044cc0040219000d0219000481add004811de00f8
:1044dc00020172009250980020c99000a2509800de
:1044ec0030ca9000b450980020d19000c25098006f
:1044fc0010299000a0299000481add004811de0018
:10450c0002017200c819de00d250980040d1900010
:10451c00e250980050d29000f4509800405990000e
:10452c008258980060099000f0099000481add004c
:10453c004811de0002017200c819de009258980082
:10454c0060599000a258980070589000b05898008c
:10455c0020c8b300c0589800d00105006f02b0000d
:10456c00889fbe008a9fbe008c9fbe008e1f780065
:10457c000004be00824678001ac0b300e3cf560098
:10458c00c6003600090678005c407800e84f500001
:10459c00c2003e000004e000c00032008000eb00ce
:1045ac00211c98000040eb00317c980001249800fd
:1045bc006011b800321c9800431c980039419000df
:1045cc004811dd00a94090008180fb008100410072
:1045dc00611c9800711c98006022b8006033b80010
:1045ec004414980055149800661498007714980099
:1045fc00207c980021c0b30021c4980040cc9800c6
:10460c006022b80044249800552498001c04e00053
:10461c00a70232004ac0b300804578000c0778002e
:10462c00ede79f008a40e8000a80fb0069407800b3
:10463c00e14f5000e10032009f0031008b86fb00ff
:10464c008180fb000d00e800000040000186440062
:10465c001c4190000281fb008001eb00481add0038
:10466c00c812de00850272004812dd002c41900059
:10467c008281fb0002002000040241008582490077
:10468c0069c178000281fb008001eb00040141004c
:10469c0085814900023478004c4090008d0644001e
:1046ac00a05698002879900002414000227c980086
:1046bc00a8c0900000c0400020c49800680e900074
:1046cc00f80e90000281fb008001eb000c00be0094
:1046dc00b6f407000000560081805e00102c980094
:1046ec00212c9800664545008b45e8009ecf1500af
:1046fc00ccff3e000e067800efe697008a80fb00a8
:10470c000a45e8000a80fb008a45e800e9c0780009
:10471c00e1ef9f002174980069407800e14f500050
:10472c00830232006f0131000b82fb0004804400d5
:10473c00104190000281fb008001eb00481bdd0062
:10474c00c813de00870373004813dd00204190007e
:10475c008281fb0002002000060341008783490090
:10476c0069417a000281fb008001eb0006014100e7
:10477c0087814900021c98006feb9700e4c5450047
:10478c00fbef9f006f476300e24f5700850232003a
:10479c009e013e00e14f57004b003a00ffeb9700a3
:1047ac008781fb0069c279000482fb008002eb0068
:1047bc006033b8000414980015149800261498005f
:1047cc0037149800efea97000504e0008c013500df
:1047dc00854078000154a000217498007feb97006d
:1047ec00644543000a81fb00828044001142900022
:1047fc000482fb008002eb00482bdd00c823de00a6
:10480c00870373004823dd00214090008082fb0069
:10481c00040020000603420087834a0069417900a6
:10482c000282fb008002eb000601420087814a00f5
:10483c0031409000c800dd00000020000200400064
:10484c008380480020249800312498003e160700ed
:10485c0070249800012c9800644045000080fb00f7
:10486c00694078000080fb00302c980065454500bd
:10487c008acf56003b0136000a85fb0069407d005b
:10488c00e14f5000710032001c4678003c7c9800cf
:10489c001980fb00201c98000045eb000a407800b2
:1048ac004f0778004f06be004f05be004f04be00f8
:1048bc006f02b10000000600e24f500025003200ec
:1048cc00e34f5000090032001ac0b3000a407800d0
:1048dc004f0778004f06be004f05be004f04be00c8
:1048ec006f02b10000000600f3ff37008180fb006f
:1048fc0001864400ac409000bc419000e08f8000e9
:10490c00100178000200e000efff3200c819dd0052
:10491c008180fb008181410092007800818f5100e1
:10492c00710032000100e000e7ff3200640041003a
:10493c000001780090007800818f51006a003200ed
:10494c00640040000100e000f9ff3a001ac0b30017
:10495c00deff37008180fb0001864400ac409000f4
:10496c00bc419000e08f8000100178000200e00054
:10497c00d5ff3200c819dd008180fb008181410028
:10498c0092007800818f5100b50032000100e000e8
:10499c00cdff3200640041000001780090007800e7
:1049ac00818f5100ae003200640040000100e00035
:1049bc00f9ff3a001ac0b300c4ff37008180fb0036
:1049cc00e9c17800018644001c429000ac40900084
:1049dc003c439000e28f8000920278000500e000da
:1049ec0008003a00004078004f0778004f06be00e0
:1049fc004f05be004f04be006f02b1000000060060
:104a0c00adff37004833dd008180fb00010343001c
:104a1c0095007800810f5300540032000100e00033
:104a2c00f0ff320064804200800278009000780031
:104a3c00810f53004d003200640040000100e00083
:104a4c00f9ff3a001ac0b300a0ff37008818900095
:104a5c00287090006f406000e24f500082023200dc
:104a6c006e023e00e14f50000e0032007fa0970016
:104a7c008fa897001fa99700afa997004014980022
:104a8c005114980062149800731498001c46780016
:104a9c003c7c98001980fb00201c98000045eb0022
:104aac007eff3700114078000082fb008002eb0093
:104abc006033b800f4a79f0085af9f0096af9f00ae
:104acc00a7af9f007fa097008fa897001fa9970002
:104adc00afa99700401498005114980062149800e4
:104aec0073149800e9ff37000100e00076ff3200f4
:104afc00920090000100e00073ff32008b86fb00f7
:104b0c000d00e80000004000113478004c4090008b
:104b1c008d064400a0569800287990000241400070
:104b2c00227c9800a8c0900000c0400020c49800cf
:104b3c00680e9000f80e90000281fb008001eb00e3
:104b4c000c00be0099f307000000560081805e0047
:104b5c00102c9800212c9800664545008b45e800e8
:104b6c009ecf1500affe3e00e2fe37000100e000d4
:104b7c0055ff3200150090000000e00052ff32009b
:104b8c00100378009202900015017800820f5300f8
:104b9c000c0032000200e0004bff3200ec804200bf
:104bac008102780011017800820f53000500320059
:104bbc00ec8040000200e000f9ff3a001ac0b3009c
:104bcc0042ff37000200e0003fff32000500e0002a
:104bdc003dff32008b86fb00c820dd008381fb008b
:104bec008380400055019000020001008d00e80018
:104bfc008180400000b478000000e00032ff3200f9
:104c0c004c4090008d064400a056980028799000e6
:104c1c0002414000227c9800a8c0900000c04000d7
:104c2c0020c49800680e9000f80e90000281fb00e2
:104c3c008001eb000c00be005cf307000000560086
:104c4c0081805e00102c9800212c98006645450050
:104c5c008b45e8009ecf150072fe3e00a5fe370086
:104c6c000100e00018ff3200920090000100e0000b
:104c7c0015ff32008b86fb000d00e80000004000a1
:104c8c00013478004c4090008d064400a0569800ea
:104c9c002879900002414000227c9800a8c0900026
:104cac0000c0400020c49800680e9000f80e9000e0
:104cbc000281fb008001eb000c00be003bf30700ff
:104ccc000000560081805e00102c9800212c98006a
:104cdc00664545008b45e8009ecf150051fe3e0011
:104cec0084fe3700e24f5000f5003200e34f5000d5
:104cfc00f5fe3a000b80fb0000804400204290003f
:104d0c0030419000e08f8000900178001ac0b30011
:104d1c000300e000e1fe32004811dd000482fb00dc
:104d2c000402410013017800820f52008801320006
:104d3c000200e000d9fe320064804100efe89700e9
:104d4c008001780010017800820f52007f01320040
:104d5c00640040000200e000f9ff3a001ac0b30002
:104d6c00dafe370088189000287090006f406000c1
:104d7c00e24f50004c01320038013e00e14f500030
:104d8c000e0032007fa897008fb097001fb19700dc
:104d9c00afb1970040149800511498006214980019
:104dac00731498001c4678003c7c98001980fb001a
:104dbc00201c98000045eb00b8fe3700114078002d
:104dcc000082fb008002eb006033b800f4af9f0060
:104ddc0085b79f0096b79f00a7b79f007fa8970045
:104dec008fb097001fb19700afb197004014980097
:104dfc00511498006214980073149800e9ff37005e
:104e0c00ffeb97000745470076fe3700e44f57004d
:104e1c00f3003200e84f5700abfe3a007fe89700f2
:104e2c000085fb008a80440081bf9f009145900063
:104e3c000b82fb008002eb006033b800c83bdd0046
:104e4c00c835de00878375004833dd00c82dde00d1
:104e5c0006837500c82add00c825de008582750032
:104e6c004822dd00b4b79f00c5b79f00d6b79f009e
:104e7c00e7b79f00214090000082fb008002eb000e
:104e8c006033b8008603780005037800840278004c
:104e9c000002eb003fb09700cfb097005fb19700d6
:104eac00efb19700040040008580480006014900de
:104ebc0087814900b0af9f00c1af9f00d2af9f0068
:104ecc00e3af9f0069427d000480fb008000eb0093
:104edc006011b8003faa9700cfaa97005fab97006c
:104eec00efab97000002420081824a0002034b00a4
:104efc0083834b00b4b79f00c5b79f00d6b79f0004
:104f0c00e7b79f008fba9700354290000480fb00f2
:104f1c008000eb006011b800c811dd00480ade000b
:104f2c00830172004809dd004802de0002017200b4
:104f3c00c800dd000000eb003fb29700cfb2970035
:104f4c005fb39700efb397000000420081804a00e6
:104f5c0002014b0083814b00b0af9f00c1af9f009b
:104f6c00d2af9f00e3af9f008fba970045429000ed
:104f7c000480fb008000eb006011b8000001be0053
:104f8c006000b8003faa9700cfaa97005fab9700cc
:104f9c00efab97000000420081804a0002014b00f9
:104fac0083814b00b0b79f00c1b79f00d2b79f0061
:104fbc00e3b79f008fba9700554290000480fb0026
:104fcc008000eb006011b800c809dd004802de006b
:104fdc00830172004801dd006000b8003fb2970009
:104fec00cfb297005fb39700efb397000000420079
:104ffc0081804a0002014b0083814b00b0af9f00bf
:10500c00c1af9f00d2af9f00e3af9f008fba970054
:10501c00654290000480fb008000eb006011b8003a
:10502c00800178000001eb006000b8003faa9700f7
:10503c00cfaa97005fab9700efab97000000420040
:10504c0081804a0002014b0083814b00b0b79f0066
:10505c00c1b79f00d2b79f00e3b79f008fba9700ec
:10506c00754290000480fb008000eb006011b800da
:10507c00c801dd000001eb006000b8003fb29700f2
:10508c00cfb297005fb39700efb3970000004200d8
:10509c0081804a0002014b0083814b000014980070
:1050ac00111498002214980033149800c5fd370091
:1050bc006bc0b300500020004100200093fd37006e
:1050cc000b80fb0000804400204290003041900097
:1050dc00e08f8000900178001ac0b3000300e0005c
:1050ec00eefd32004811dd000482fb000402410099
:1050fc0013017800820f52008b0032000200e00096
:10510c00e6fd320064804100efe8970080017800f2
:10511c0010017800820f52008200320064004000bf
:10512c000200e000f9ff3a001ac0b300e7fd3700b7
:10513c008b80fb00e9c37800818044001143900010
:10514c00a1419000b1409000e58f800015017800de
:10515c00004578000200e000d0fd3200c808dd00f8
:10516c008381fb008381400092007800818f510085
:10517c00810032000100e000c8fd320064004100f3
:10518c000001780090007800818f51007a00320085
:10519c00640040000100e000f9ff3a001ac0b300bf
:1051ac00cafd37000b4578000a82fb00848144005d
:1051bc0093419000c819dd0069427a000482fb001b
:1051cc00048241008002eb006033b80004149800a4
:1051dc0015149800261498003714980079fd3700a0
:1051ec00ffed97000b83fb00868144001342900077
:1051fc000482fb008002eb00482ddd00c825de0098
:10520c008b0575004825dd00234290008482fb004d
:10521c00040020000a0542008b854a0069427b008d
:10522c000482fb008002eb000a0542008b854a00d9
:10523c0033429000c822dd00040020000a02420024
:10524c008b824a006033b80004149800151498003f
:10525c0026149800371498005afd3700e44f50007c
:10526c0021003200e84f5000c6fe3a003102be0069
:10527c002103be00f4af9f0085b79f0096b79f0037
:10528c00a7b79f007fa897008fb097001fb197001a
:10529c00afb1970040149800511498006214980014
:1052ac0073149800bffe3700110078006102b8003b
:1052bc006033b800f4af9f0085b79f0096b79f008e
:1052cc00a7b79f007fa897008fb097001fb19700da
:1052dc00afb19700401498005114980062149800d4
:1052ec0073149800affe37001102be006033b80093
:1052fc00f4af9f0085b79f0096b79f00a7b79f009c
:10530c007fa897008fb097001fb19700afb197009f
:10531c00401498005114980062149800731498006b
:10532c00a0fe3700e1ef9f001ac0b3000200e000be
:10533c005afd3200130090000000e00057fd3200cf
:10534c00001c98006feb97000cfd3700e1ef9f00fd
:10535c001ac0b3000200e00050fd320013009000b0
:10536c000000e0004dfd320010007800001c980099
:10537c006feb970001fd37001ac0b3000100e0008d
:10538c0046fd3200120290000400e00043fd3200a2
:10539c00940178001501900092007800818f5100e3
:1053ac000c0032000100e0003cfd32006c004100ba
:1053bc000001780090007800818f510005003200c8
:1053cc006c0040000100e000f9ff3a001ac0b30085
:1053dc003efd37001ac0b3000100e0002ffd320083
:1053ec000200e0002dfd3200c830dd000780fb001c
:1053fc0080804000520190000400780002000100ff
:10540c00001c98000000e00024fd3200a8729000ff
:10541c00e5ef9f0005437800d8fc3700e44f5000bf
:10542c0021003200e84f500090fd3a003102be00de
:10543c002103be00f4a79f0085af9f0096af9f008d
